:100000000C9463000C948B000C948B000C944204B1
:100010000C9442040C9442040C948B000C948B00BE
:100020000C948B000C948B000C948B000C948B0024
:100030000C948B000C948B000C948B000C948B0014
:100040000C94290C0C948B000C9410040C94EA036F
:100050000C948B000C948B000C948B000C948B00F4
:100060000C94210A0C948B0000000000240027004F
:100070002A0000000008000201000003040700003D
:1000800000000000000000000000230026002900FE
:1000900000000000250028002B00040404040404D0
:1000A0000404020202020202030303030303010227
:1000B00004081020408001020408102001020408F6
:1000C0001020E412C81211241FBECFEFD8E0DEBF0B
:1000D000CDBF12E0A0E0B1E0E4E8FDE202C005908F
:1000E0000D92AA30B107D9F724E0AAE0B2E001C02E
:1000F0001D92A031B207E1F710E0C2E6D0E004C0E3
:100100002197FE010E946714C136D107C9F70E94EA
:10011000730C0C94B5160C940000CF92DF92EF9202
:10012000FF920F931F93CF93DF936C017A018B01A2
:10013000C0E0D0E0CE15DF0581F0D8016D918D01D2
:10014000D601ED91FC910190F081E02DC601099559
:10015000892B11F02196EECF7E01C701DF91CF915F
:100160001F910F91FF90EF90DF90CF900895FC01C9
:10017000538D448D252F30E0842F90E0821B930B0C
:10018000541710F0CF96089501970895FC01918DB2
:10019000828D981761F0828DDF01A80FB11D5D96E9
:1001A0008C91928D9F5F9F73928F90E008958FEF57
:1001B0009FEF0895FC01918D828D981731F0828D0B
:1001C000E80FF11D858D90E008958FEF9FEF089562
:1001D000FC01918D228D892F90E0805C9F4F821BC6
:1001E00091098F73992708958DEC92E00E94E800A1
:1001F00021E0892B09F420E0822F0895FC01848DF1
:10020000DF01A80FB11DA35ABF4F2C91848D90E040
:1002100001968F739927848FA689B7892C93A0891B
:10022000B1898C91837080648C93938D848D9813A5
:1002300006C00288F389E02D80818F7D8083089538
:10024000EF92FF920F931F93CF93DF93EC0181E026
:10025000888F9B8D8C8D981305C0E889F9898081E2
:1002600085FD26C0F62E0B8D10E00F5F1F4F0F731C
:100270001127E02E8C8DE8120CC00FB607FCFACFC8
:10028000E889F989808185FFF5CFCE010E94FE00C3
:10029000F1CF8B8DFE01E80FF11DE35AFF4FF08285
:1002A0009FB7F8940B8FEA89FB89808180620AC02E
:1002B0009FB7F894EE89FF896083E889F989808186
:1002C0008370806480839FBF81E090E0DF91CF9155
:1002D0001F910F91FF90EF900895CF93DF93EC0162
:1002E000888D8823C9F0EA89FB89808185FD05C056
:1002F000A889B9898C9186FD0FC00FB607FCF5CF90
:10030000808185FFF2CFA889B9898C9185FFEDCFD7
:10031000CE010E94FE00E7CFDF91CF91089580E0EB
:1003200090E0892B29F00E94F40081110C940000C8
:100330000895DC0152968D919C915397009739F066
:10034000DC01ED91FC910680F781E02D0994089580
:10035000FC01A289B389109741F0ED91FC911197AE
:100360000084F185E02DCD0108C084899589DC01E8
:10037000ED91FC910084F185E02D0994FC01A289A6
:10038000B389109741F0ED91FC9111970284F385A8
:10039000E02DCD0108C084899589DC01ED91FC91A7
:1003A0000284F385E02D0994FC01A289B38910979A
:1003B00041F0ED91FC9111970190F081E02DCD017C
:1003C00008C084899589DC01ED91FC910190F08150
:1003D000E02D0994FC01A289B389109741F0ED91B9
:1003E000FC9111970484F585E02DCD0108C0848926
:1003F0009589DC01ED91FC910484F585E02D09944B
:100400002091BF023091C0022817390771F49091F2
:100410000A0280910B02981741F0E0910A02F0E085
:10042000E95DFD4F808190E008958FEF9FEF089583
:100430001F93CF93DF93DC015C968D919C915D9728
:10044000009739F421E030E013963C932E931297F5
:100450003BC05196ED91FC91529750962C9150973C
:10046000322F30951FB75E964C915E97742F727045
:1004700041FD6095F8944081772311F0422B01C033
:1004800043234083EC012197F1F748E0508160FF5E
:1004900002C0522B01C053235083EC012197F1F786
:1004A0006695415099F78081772319F083238083E3
:1004B00002C0282B20831FBF5C968D919C915D9775
:1004C0000197F1F781E090E0DF91CF911F910895BE
:1004D0002091BF023091C0022817390771F4809132
:1004E0000B0220910A0290E0805C9F4F821B9109D1
:1004F00060E470E00E943F14089580E090E0089569
:100500002091BF023091C00228173907B9F49091A9
:100510000A0280910B02981789F0E0910A02F0E03C
:10052000E95DFD4F808120910A0230E02F5F3F4F4F
:100530002F73332720930A0290E008958FEF9FEFE7
:100540000895089580E090E008950E94B016DC01BF
:10055000ED91FC910190F081E02D099461157105F8
:1005600079F0FB0101900020E9F73197AF01461BBC
:10057000570BDC01ED91FC910280F381E02D099491
:1005800080E090E008958F929F92AF92BF92EF9299
:10059000FF920F931F93CF93DF93CDB7DEB7A19751
:1005A0000FB6F894DEBF0FBECDBF7C01FA01CB01C0
:1005B00019A2223008F42AE08E010F5D1F4F822E0F
:1005C000912CA12CB12CBF01A50194010E940E1405
:1005D000F901CA01015011096A3014F4605D01C0CB
:1005E000695CD8016C93232B242B252B61F7B80170
:1005F000C7010E94AE02A1960FB6F894DEBF0FBEEF
:10060000CDBFDF91CF911F910F91FF90EF90BF90E1
:10061000AF909F908F9008957F928F929F92AF920C
:10062000BF92CF92DF92EF92FF920F931F93CF93DF
:10063000DF938C016A017B01722E9A01AB01C70125
:10064000B6010E94AB16882319F06CEE71E027C04A
:1006500046015701E894B7F82FEF3FEF4FE75FE708
:10066000C501B4010E94AB1681110DC02FEF3FEF01
:100670004FE75FE7C501B4010E94DA1418161CF4B5
:1006800060EF71E00CC02FEF3FEF4FE75FE4C70171
:10069000B6010E943916181694F464EF71E0C8018F
:1006A000DF91CF911F910F91FF90EF90DF90CF904E
:1006B000BF90AF909F908F907F900C94AE022FEFE1
:1006C0003FEF4FE75FECC701B6010E94DA1487FDE8
:1006D000E4CF20E030E0A901C701B6010E94DA149E
:1006E00087FF0AC06DE2C8010E94A702EC01F7FA79
:1006F000F094F7F8F09402C0C0E0D0E0B12C60E0D4
:1007000070E080E09FE37B1441F020E030E040E2C5
:1007100051E40E94DF14B394F6CFA70196010E9422
:100720006E146B017C010E9458154B015C012AE09C
:10073000AB01BC01C8010E94C302C80FD91F7720BA
:10074000C1F1C501B4010E9487159B01AC01C7012D
:10075000B6010E946D146B017C016EE2C8010E941B
:10076000A702C80FD91F20E030E040E251E4C701E2
:10077000B6010E943E164B015C010E9458156B01A8
:10078000E12CF12C2AE0B701A601C8010E94C302A6
:10079000C80FD91FC701B6010E9487159B01AC0184
:1007A000C501B4010E946D146B017C017A94711033
:1007B000DACFCE01DF91CF911F910F91FF90EF9093
:1007C000DF90CF90BF90AF909F908F907F900895D3
:1007D0000C94AE021F920F920FB60F9211242F931A
:1007E0003F934F935F936F937F938F939F93AF93B9
:1007F000BF93EF93FF938DEC92E00E94FE00FF9178
:10080000EF91BF91AF919F918F917F916F915F9188
:100810004F913F912F910F900FBE0F901F90189501
:100820001F920F920FB60F9211242F938F939F93C5
:10083000EF93FF93E091DD02F091DE028081E09181
:10084000E302F091E40282FD12C090818091E60201
:100850008F5F8F732091E702821751F0E091E602DB
:10086000F0E0E353FD4F958F8093E60201C0808155
:10087000FF91EF919F918F912F910F900FBE0F904D
:100880001F9018951F920F920FB60F9211242F935D
:100890003F934F935F936F937F938F939F93AF9308
:1008A000BF93EF93FF93E091BF02F091C0023097A6
:1008B00009F451C0968DA685B785858591FF04C042
:1008C0009C91892329F447C09C91892309F043C056
:1008D000A389B4899C918589809589238C93868985
:1008E00097890197F1F7608D718DA685B78555853C
:1008F00038E020E0CB010197F1F7822F90E0959549
:100900008795282F4C91452309F02068315091F7A5
:10091000868D81FD209580910B0290E001968F736A
:10092000992730910A02381749F0A0910B02B0E0E4
:10093000A95DBD4F2C9380930B0203C0868D81600F
:10094000868F828D938D0197F1F7A389B4899C914D
:100950008589892B8C93FF91EF91BF91AF919F91E6
:100960008F917F916F915F914F913F912F910F9058
:100970000FBE0F901F901895CF93FC01C48121E00A
:1009800020938F02C093260210929302109292023B
:100990008485682B81EC92E00E9478079091920206
:1009A000913208F045C0809199028111FCCF82E01C
:1009B0008093990281E080939B028FEF809398024D
:1009C0001092BD029093BC02AFE6B2E0ECE9F2E017
:1009D00080E0981721F02D9121938F5FFACF10922C
:1009E000BE028091BE02CC0FC82BC093BE02809184
:1009F0009A02813061F410929A028091BE02809333
:100A0000BB008091BC0083FDF8CF85EC01C085EE72
:100A10008093BC00809199028230E1F3809198022A
:100A20008F3F31F080919802803211F080919802CE
:100A3000109293021092920210928F02CF91089519
:100A40000F931F93CF938C01C62F0E94BC046C2F71
:100A50006460C8010E94BC046C2F6B7FC8010E94B7
:100A6000BC0483EC90E00197F1F7CF911F910F91B7
:100A700008950F931F93CF93DF938C01C62FD42F2C
:100A8000607F642B0E94200580E1C89FB001112483
:100A90006D2BC801DF91CF911F910F910C94200510
:100AA00041E00E94390581E090E008950E940E0A1D
:100AB00060E080E00E94A90968EF71E08FE993E0AF
:100AC0000E94E80361E080E00E94A90960910801AA
:100AD000709109018FE993E00E94D80960E085E0F8
:100AE0000E94A9096DEF71E08FE993E00E94E8038D
:100AF00061E085E00E94A90960910A0170910B01F3
:100B00008FE993E00E94D80980910A0190910B012E
:100B100061E08436910511F488E005C00A9714F06D
:100B200087E001C086E00E94A90963E072E08FE9D6
:100B300093E00E94E80360E08BE00E94A90965E071
:100B400072E08FE993E00E94E80361E08BE00E948D
:100B5000A90960910601709107018FE993E00E9455
:100B6000D809809106019091070161E084369105D2
:100B700011F48EE005C00A9714F08DE001C08CE0FE
:100B80000E94A90963E072E08FE993E00C94E80306
:100B90008F929F92AF92BF92CF92DF92EF92FF928D
:100BA000CF93DF936B017C0149015A0188E00E94D9
:100BB0004F0BEC01909325028093240280910C024C
:100BC00090910D02C817D907A9F0C130D10591F451
:100BD00089E00E944F0BA5019401019729F0C701FC
:100BE000B6010E946E1404C0C701B6010E946D14C4
:100BF0006B017C01D0930D02C0930C02C701B601BA
:100C0000DF91CF91FF90EF90DF90CF90BF90AF90AA
:100C10009F908F9008959F92AF92BF92CF92DF9254
:100C2000EF92FF920F931F93CF93DF9353E0952E94
:100C30008AE693E00E94990110927703109276035E
:100C400060E88AE693E00E94D40180E80E94D5081B
:100C500060E18AE693E00E94D40180E10E94D50819
:100C6000609178037091790380917A0390917B036E
:100C70000E9458085C010E94D5082FEFA216B20608
:100C800009F498C0609178037091790380917A0398
:100C900090917B030E9458086C010E94D5088FEF49
:100CA000C816D80609F486C060917803709179035C
:100CB00080917A0390917B030E9458088C010E94D6
:100CC000D5080F3F2FEF120709F474C06091780325
:100CD0007091790380917A0390917B030E94580868
:100CE000EC010E94D508CF3F8FEFD80709F462C00E
:100CF000609178037091790380917A0390917B03DE
:100D00000E9458087C010E94D508EF20E09409F465
:100D100051C0609178037091790380917A0390912A
:100D20007B030E9458087C018FEFE816F80609F44F
:100D300041C0609178037091790380917A0390911A
:100D40007B030E9458088F3F2FEF920799F1FE2CEA
:100D5000EE248E299F292091760330917703821704
:100D6000930741F5A501BB0C660B770B742F662723
:100D700055274427C601DD0CAA0BBB0B7C01DD24E3
:100D8000CC24C801110FAA0BBB0BBA2FA92F982F87
:100D900088278C299D29AE29BF298E01DD0F220BC2
:100DA000330B802B912BA22BB32B842B952BA62BB3
:100DB000B72B05C09A9491103BCF83E690E0DF916A
:100DC000CF911F910F91FF90EF90DF90CF90BF9048
:100DD000AF909F90089585ED8093BC008091BC00FA
:100DE00084FDFCCF1092990208954091EC03262FC8
:100DF00030E0240F311D21323105DCF420919902BD
:100E00002430C9F4FC0180E090E0861758F430915A
:100E1000EC032191DC01A453BC4FA30FB11D2C9313
:100E20000196F3CF8091EC03680F6093EC0380E0B0
:100E3000089581E0089582E0089508950895089541
:100E4000E091910280919002E81730F4F0E0E455CF
:100E5000FC4F808190E008958FEF9FEF089590916F
:100E6000910280919002981750F4E92FF0E0E45538
:100E7000FC4F208130E09F5F9093910202C02FEFE2
:100E80003FEFC90108958091900290E02091910276
:100E9000821B91090895CF92DF92EF92FF920F93F8
:100EA0001F93CF93DF937C01CB018A0120918F02A6
:100EB000222389F0EB016B01C40ED51ECC15DD0594
:100EC00069F06991D701ED91FC910190F081E02DDD
:100ED000C7010995F3CF642F0E94F506C801DF9181
:100EE000CF911F910F91FF90EF90DF90CF900895D9
:100EF000CF93DF931F92CDB7DEB7698320918F0226
:100F00002223D1F020919202203240F021E030E003
:100F1000FC013383228380E090E015C0809193022E
:100F2000E82FF0E0E159FD4F998190838F5F809326
:100F300093028093920205C061E0CE0101960E9467
:100F4000F50681E090E00F90DF91CF910895833016
:100F500081F028F4813099F08230A1F00895873033
:100F6000A9F08830B9F08430D1F4809180008F7D71
:100F700003C0809180008F7780938000089584B5AE
:100F80008F7702C084B58F7D84BD08958091B000B5
:100F90008F7703C08091B0008F7D8093B00008955B
:100FA0003FB7F89480916B0290916C02A0916D0212
:100FB000B0916E0226B5A89B05C02F3F19F001968F
:100FC000A11DB11D3FBFBA2FA92F982F8827820FCF
:100FD000911DA11DB11DBC01CD0142E0660F771F1F
:100FE000881F991F4A95D1F70895CF92DF92EF920B
:100FF000FF92CF93DF93EC016A017B01E889F989C5
:1010000082E080834115514E61057105B1F060E0C9
:1010100079E08DE390E0A70196010E940E14DA01B9
:10102000C9010197A109B109B695A795979587952B
:101030009C01211580E13807A8F0E889F989108220
:1010400060E874E88EE190E0A70196010E940E141A
:10105000DA01C9010197A109B109B695A79597953C
:1010600087959C01EC85FD853083EE85FF85208387
:10107000188EEC89FD8986E08083EA89FB8980816E
:1010800080618083EA89FB89808188608083EA8926
:10109000FB89808180688083EA89FB8980818F7DDC
:1010A0008083DF91CF91FF90EF90DF90CF900895F4
:1010B0008F929F92AF92BF92CF92DF92EF92FF9268
:1010C0006B017C0180917C0390917D03892B21F140
:1010D0000E94D0074B015C0180917C0390917D03BD
:1010E000DC01ED91FC910084F185E02D0995892BBF
:1010F00071F40E94D007DC01CB0188199909AA0973
:10110000BB098C159D05AE05BF0530F343C080912A
:101110007C0390917D032EC020917E0330917F034C
:101120008091BF029091C0022817390791F50E9463
:10113000D0074B015C0180917E0390917F03DC011D
:10114000ED91FC910084F185E02D0995892B71F4D6
:101150000E94D007DC01CB0188199909AA09BB09B3
:101160008C159D05AE05BF0530F314C080917E033C
:1011700090917F03DC01ED91FC910284F385E02DD9
:10118000FF90EF90DF90CF90BF90AF909F908F90A7
:10119000099402C08FEF9FEFFF90EF90DF90CF9008
:1011A000BF90AF909F908F900895209176033091DB
:1011B0007703A9015827CA0128E030E0AC01440FA9
:1011C000551F97FF06C0CA0161E2862760E1962796
:1011D00001C0CA012150310989F7909377038093A8
:1011E00076030895CF92DF92FF920F931F93CF93D0
:1011F000DF93CDB7DEB713E010927703109276033A
:10120000FE013D9600E08C85081781F06F0182E0B9
:10121000C80ED11CF0808F2D0E94D5086F2D8AE654
:1012200093E00E94D4010F5FF601EDCF00917603A9
:10123000609177038AE693E00E94D401602F8AE6EA
:1012400093E00E94D40160917803709179038091BA
:101250007A0390917B030E9458088F3F910521F0FB
:10126000115051F680E001C081E0DF91CF911F91D4
:101270000F91FF90DF90CF900895CF93DF93BC0143
:101280008DEC92E00E94AE02EC0167E871E08DEC1B
:1012900092E00E94AE028C0F9D1FDF91CF910895C6
:1012A0000F931F931F920F931F922F931F923F93A1
:1012B0001F924F93052F1127222733271F930F9338
:1012C0001F921F921F921F921F921F921F921F9296
:1012D0001F926F931F927F931F928F93892F99274D
:1012E000AA27BB279F938F931F921F921F921F9233
:1012F0001F921F921F921F921F9281E48F931F9241
:1013000080E88F9383E18F938AE693E09F938F9396
:101310000E94F2082DB73EB7275D3F4F0FB6F894F5
:101320003EBF0FBE2DBF1F910F91089581E48093A2
:101330007C0080917A00806480937A0080917A00AA
:1013400086FDFCCF809178002091790090E0922B6F
:101350000895CF93DF93CDB7DEB728970FB6F894F3
:10136000DEBF0FBECDBF98E0ECE0F1E0DE011196EC
:1013700001900D929A95E1F79091A703961710F4BA
:101380006FEF690FFE013196E60FF11DE60FF11DBB
:101390006081680F606840E08FE993E028960FB69F
:1013A000F894DEBF0FBECDBFDF91CF910C9439050D
:1013B000CF92DF92EF92FF920F931F93CF93DF9321
:1013C0006B01770FEE08FF08F7FE1BC0EC016DE222
:1013D0000E94A7028C0144275527BA014C195D09C8
:1013E0006E097F092AE0CE010E94C302800F911F7F
:1013F000DF91CF911F910F91FF90EF90DF90CF90F1
:1014000008952AE0B701A601DF91CF911F910F91B6
:10141000FF90EF90DF90CF900C94C30240E061E02A
:101420008FE993E00E9439058BE39FE10197F1F783
:101430008091A803882321F060E080E00C94A90942
:1014400008951F920F920FB60F9211242F933F937E
:101450004F935F936F937F938F939F93AF93BF93BC
:10146000EF93FF938091B900887F803609F49CC088
:1014700068F5883209F45BC090F4803109F454C0F7
:1014800038F4882309F4F6C0883009F44DC0F6C05A
:10149000883109F44CC0803209F45DC0EFC080345B
:1014A00009F468C048F4803309F455C0883309F062
:1014B000E5C080939802D8C0803509F44FC08835C4
:1014C00009F45DC0883409F0D9C0D6C0883909F460
:1014D000C7C0A8F4883709F467C038F4883609F41F
:1014E00063C0803709F460C0C9C0883809F4B8C047
:1014F000803909F45FC0803809F0C0C05BC0803B10
:1015000009F486C038F4803A09F466C0883A09F4D0
:101510007FC0B4C0803C09F4A7C0883C09F4A4C0D3
:10152000883B09F48AC0AAC08091BE0210C0909185
:10153000BD028091BC02981770F5E091BD0281E078
:101540008E0F8093BD02F0E0E456FD4F80818093C2
:10155000BB0085EC86C0809398028EC0E091BD02EE
:1015600081E08E0F8093BD028091BB00F0E0E456D5
:10157000FD4F80839091BD028091BC026EC0E091CE
:10158000BD0281E08E0F8093BD028091BB00F0E030
:10159000E456FD4F808380919B0281116DC081E0F4
:1015A00080939A0284EA61C083E08093990210924A
:1015B0000E04CFCF80910E04803208F051C0E0912C
:1015C0000E0481E08E0F80930E048091BB00F0E04A
:1015D000E251FC4F8083BDCF85EC8093BC0010921C
:1015E000990280910E04803230F4E0910E04F0E014
:1015F000E251FC4F108260910E0470E0E09196027F
:10160000F09197028EEE93E0099510920E0436C089
:1016100084E0809399021092ED031092EC03E09124
:101620009402F091950209958091EC03811105C017
:1016300081E08093EC031092CC03E091ED0381E014
:101640008E0F8093ED03F0E0E453FC4F8081809394
:10165000BB009091ED038091EC03981708F479CFCB
:1016600085E88093BC000AC085EC8093BC00109292
:10167000990204C0109298020E94EB06FF91EF912C
:10168000BF91AF919F918F917F916F915F914F919A
:101690003F912F910F900FBE0F901F901895CF93F1
:1016A000DF93282F30E0F901EE58FF4F8491F901C4
:1016B000E255FF4FD491F901E656FF4FC491CC2378
:1016C00091F081110E94A707EC2FF0E0EE0FFF1FB1
:1016D000EA57FF4FA591B491EC91ED2381E090E0A2
:1016E00021F480E002C080E090E0DF91CF91089586
:1016F0001F93CF93DF93282F30E0F901EE58FF4F6F
:101700008491F901E255FF4FD491F901E656FF4F5C
:10171000C491CC23C1F0162F81110E94A707EC2F92
:10172000F0E0EE0FFF1FE057FF4FA591B4919FB778
:10173000F894111104C08C91D095D82302C0EC917B
:10174000DE2BDC939FBFDF91CF911F910895CF9344
:10175000DF9390E0FC01E255FF4F2491FC01E65637
:10176000FF4F8491882361F190E0880F991FFC015D
:10177000E859FF4FC591D491FC01E057FF4FA59167
:10178000B491611109C09FB7F89488812095822394
:101790008883EC912E230BC0623061F49FB7F894DC
:1017A0008881322F309583238883EC912E2B2C93C4
:1017B0009FBF06C08FB7F894E8812E2B28838FBF78
:1017C000DF91CF9108958F929F92AF92BF92CF9267
:1017D000DF92EF92FF926B017C010E94D0074B01D8
:1017E0005C01C114D104E104F104F1F00E94D007BE
:1017F000DC01CB0188199909AA09BB09883E9340ED
:10180000A105B10570F321E0C21AD108E108F10881
:1018100088EE880E83E0981EA11CB11CC114D1046F
:10182000E104F10419F7DDCFFF90EF90DF90CF9046
:10183000BF90AF909F908F9008952FB7F8946091CC
:101840006702709168028091690290916A022FBFCD
:1018500008951F920F920FB60F9211242F933F936A
:101860008F939F93AF93BF9380916702909168028B
:10187000A0916902B0916A0230910F0423E0230F16
:101880002D3720F40196A11DB11D05C026E8230FB8
:101890000296A11DB11D20930F04809367029093BF
:1018A0006802A0936902B0936A0280916B029091E2
:1018B0006C02A0916D02B0916E020196A11DB11D46
:1018C00080936B0290936C02A0936D02B0936E02B2
:1018D000BF91AF919F918F913F912F910F900FBE2C
:1018E0000F901F901895789484B5826084BD84B55C
:1018F000816084BD85B5826085BD85B5816085BD0B
:1019000080916E00816080936E00109281008091C2
:10191000810082608093810080918100816080934A
:101920008100809180008160809380008091B1006F
:1019300084608093B1008091B00081608093B0009A
:1019400080917A00846080937A0080917A0082602E
:1019500080937A0080917A00816080937A008091F0
:101960007A00806880937A001092C10060E088E07D
:101970000E94A70B60E089E00E94A70B62E08AE06A
:101980000E94A70B88E00E944F0B90930D0280935A
:101990000C0262E087E00E94A70B62E086E00E94F2
:1019A000A70B62E085E00E94A70B62E08EE00E9438
:1019B000A70B61E08CE00E94A70B61E08DE00E9424
:1019C000A70B40E052EC61E070E08DEC92E00E94E9
:1019D000F50780917C0390917D03009739F040E0FA
:1019E00056E960E070E00E94F50788C0E0917E0350
:1019F000F0917F03138E128E118E108E178A168A25
:101A000085E690E0958F848F9485963108F04EC0DE
:101A100021E230E0378B268B23E630E0318F208FB8
:101A200022E430E0338F228F30916800983058F0F4
:101A300021E09E3008F420E091E0892F01C0880F5A
:101A40002A95EAF701C084E0832B8093680094858F
:101A5000983038F09E3040F0963148F020E030E089
:101A600008C02DE630E005C02BE630E002C02CE6D1
:101A700030E0348B238B983030F481E001C0880F44
:101A80009A95EAF70EC0292F30E09E3018F42850BE
:101A9000310902C02E50310981E001C0880F2A951A
:101AA000EAF7858B848D958D0197F1F7828D938D63
:101AB000892B21F1A091BF02B091C002EA17FB0768
:101AC000E9F0109751F05396CD91DC91549798819D
:101AD00055968C91809589238883868D8E7F868FFD
:101AE00010920B0210920A02F093C002E093BF0220
:101AF000A389B4899C918589892B8C93109291023A
:101B000010929002109293021092920210929902F7
:101B100081E080939B0210929A0261E082E10E9430
:101B2000780B61E083E10E94780B8091B9008E7F91
:101B30008093B9008091B9008D7F8093B90088E4CB
:101B40008093B80085E48093BC008DE197E090938A
:101B50009502809394028EE197E090939702809390
:101B600096021092A4038091AA03823018F098E0A4
:101B70009093A4038093A70362E370E080E090E079
:101B80000E94E30B6091AB038FE993E00E94BC04D9
:101B900068EE73E080E090E00E94E30B60E38FE981
:101BA00093E00E942005CBE4D6E4CE010197F1F743
:101BB00060E38FE993E00E9420052197F1F760E34D
:101BC0008FE993E00E94200583E592E00197F1F709
:101BD00060E28FE993E00E9420056091A4036062B7
:101BE00040E08FE993E00E94390584E08093A503EB
:101BF00040E06CE08FE993E00E9439050E940E0AF4
:101C000082E08093A60340E066E08FE993E00E94C3
:101C1000390540E062E08FE993E00E9439058BE3EB
:101C20009FE10197F1F788E08093AB0360E08FE9D3
:101C300093E00E94BC040E94560588E691E00E9451
:101C40003D091F921F921F921F921F9280E88F934F
:101C500083E08F938AE693E09F938F930E94F2082C
:101C600064E771E08DEC92E00E94E8030E940B06AD
:101C70006C01990FEE08FF088DB79EB709960FB655
:101C8000F8949EBF0FBE8DBFF7FE0EC06DE28DECC7
:101C900092E00E94A70244275527BA014C195D091A
:101CA0006E097F092AE003C02AE0B701A6018DEC86
:101CB00092E00E94C30267E871E08DEC92E00E941E
:101CC000AE028EE00E944F0B892BC9F00E940B06DA
:101CD00002979C01990F440B550B00E068E873E1F3
:101CE00080E090E00E94500961E070E080E090E0C8
:101CF0000E94E30B8AE891E00E943D09E2CF1F9227
:101D00001F921F921F921F9210E81F9383E08F93E0
:101D1000CAE6D3E0DF93CF930E94F2081F921F928E
:101D20001F921F921F921F921F921F921F9286E175
:101D30008F931F921F9386E08F93DF93CF930E9420
:101D4000F2088DB79EB748960FB6F8949EBF0FBEA7
:101D50008DBF8FE5482E512C612C712CC1E0D0E055
:101D600013E094E0292E312C25E0A22EB12C34E68C
:101D7000832E912C8091220290912302019709F0E9
:101D80000BC18AE00E944F0B892B21F51F921F92F5
:101D90001F921F921F9290E89F931F938AE693E0F1
:101DA0009F938F930E94F20860E08DE00E94780B71
:101DB00010922302109222028DB79EB709960FB699
:101DC000F8949EBF0FBE8DBF8AE00E944F0B892BF7
:101DD000D9F3E2C00E949609BC01990F880B990BB8
:101DE0000E94891520E030E042E853E40E946D141F
:101DF00020E030E040E05FE30E943E169B01AC0132
:101E000060911E0270911F02809120029091210228
:101E10000E94DA1487FF27C060E08DE00E94780BF3
:101E200010922302109222020E940B061816190625
:101E30005CF401E020E030E0A90168EE73E080E0AE
:101E400090E00E945009F0CF61E08CE00E94780B96
:101E500060ED77E080E090E00E94E30B60E08CE0D2
:101E60000E94780B99C020910A0130910B01C901A1
:101E7000330FAA0BBB0B9C01AD0125503109410961
:101E80005109ACEABDE00E940314A30192010E9433
:101E9000E41369017A0194EFC90E91E0D91EE11CA7
:101EA000F11CC60120910E0230910F02211531055F
:101EB00099F52091060130910701C901330FAA0B52
:101EC000BB0B9C01AD012550310941095109ACE220
:101ED000B1E00E940314A30192010E94E413DA010D
:101EE000C901885A9D4FAF4FBF4F9C01990F440BBA
:101EF000550BB601DD0C880B990B00E00E945009D0
:101F00000E940B0602970CF092C00E940B068F3FB6
:101F10009F4F0CF48CC01EC021303105D9F4609164
:101F20000801709109010E943F14072E000C880BD4
:101F3000990B00E020E030E0A9010E9450090E94C6
:101F40000B0602970CF078C00E940B068F3F9F4F44
:101F50000CF472C00E949609BC01990F880B990B72
:101F60000E94891520E030E042E853E40E946D149D
:101F700020E030E040E05FE30E943E16AB01BC0190
:101F800022E08DEC92E00E940C0367E871E08DEC9A
:101F900092E00E94AE02EECE8AE00E944F0B892BA7
:101FA00009F042C00E941D0C6B017C0160931A0273
:101FB00070931B0280931C0290931D028AE00E9482
:101FC0004F0B892B69F40E941D0CDC01CB018C198D
:101FD0009D09AE09BF098C3D9540A105B10570F37F
:101FE0000E941D0CDC01CB018C199D09AE09BF09B3
:101FF000883E9340A105B10520F586E991E00E9455
:102000003D098AE00E944F0B892BD9F3D09323021C
:10201000C093220261E08DE00E94780B68EC70E0D2
:1020200080E090E00E94E30B0E948F01A3CED0934A
:102030000F02C0930E028ECF10920F0210920E026A
:1020400089CF82EA91E00E943D098AE00E944F0B0D
:10205000892B09F042C00E941D0CC0901602D0903E
:102060001702E0901802F0901902DC01CB018C19E4
:102070009D09AE09BF09893E9340A105B105A8F0AD
:1020800061E083E00E94A90965E871E08FE993E0CF
:102090000E94E8030E941D0C6093160270931702C1
:1020A0008093180290931902D0CF0E941D0CDC017E
:1020B000CB018C199D09AE09BF09853F9140A1054F
:1020C000B10518F261E083E00E94A9096DEA71E0B0
:1020D0008FE993E00E94E803B8CF109215021092A6
:1020E00014020E941D0C60931602709317028093D5
:1020F0001802909319028091140290911502843075
:1021000091050CF091CF009709F070C08FEA91E033
:102110000E943D096091080170910901072E000C91
:10212000880B990B0E94891520E030E040E85FE3BE
:102130000E94C8050E94511570930901609308011F
:102140000E941D0CC0901602D0901702E090180259
:10215000F0901902DC01CB018C199D09AE09BF0971
:10216000893E9340A105B105A8F061E083E00E949B
:10217000A90965E871E08FE993E00E94E8030E94F5
:102180001D0C6093160270931702809318029093AF
:10219000190217C00E941D0CDC01CB018C199D098E
:1021A000AE09BF09853F9140A105B10550F061E03E
:1021B00083E00E94A9096DEA71E08FE993E00E9433
:1021C000E8038091080190910901853091052CF078
:1021D000309209012092080189C1181619060CF4E1
:1021E00085C1D0930901C093080180C18130910558
:1021F00009F06FC08EEB91E00E943D0960910A01E9
:1022000070910B01072E000C880B990B0E94891509
:1022100020E030E040EA50E40E94C8050E945115D9
:1022200070930B0160930A010E941D0CC09016026E
:10223000D0901702E0901802F0901902DC01CB0157
:102240008C199D09AE09BF09893E9340A105B105CE
:10225000A8F061E089E00E94A90965E871E08FE9D2
:1022600093E00E94E8030E941D0C60931602709395
:102270001702809318029093190217C00E941D0C38
:10228000DC01CB018C199D09AE09BF09853F914046
:10229000A105B10550F061E089E00E94A9096DEA4D
:1022A00071E08FE993E00E94E80380910A01909128
:1022B0000B01853691052CF090920B0180920A015A
:1022C00015C105970CF012C1B0920B01A0920A0142
:1022D0000DC18230910509F06FC08EEC91E00E9433
:1022E0003D096091060170910701072E000C880BD3
:1022F000990B0E94891520E030E040EA50E40E94EA
:10230000C8050E94511570930701609306010E9451
:102310001D0CC0901602D0901702E0901802F090A9
:102320001902DC01CB018C199D09AE09BF09893E58
:102330009340A105B105A8F061E08FE00E94A909D2
:1023400065E871E08FE993E00E94E8030E941D0CAC
:1023500060931602709317028093180290931902EB
:1023600017C00E941D0CDC01CB018C199D09AE0920
:10237000BF09853F9140A105B10550F061E08FE0B4
:102380000E94A9096DEA71E08FE993E00E94E803D9
:102390008091060190910701853691052CF090926D
:1023A000070180920601A2C005970CF09FC0B09271
:1023B0000701A09206019AC0039709F097C00E94F6
:1023C0000E0A60E080E00E94A9096EED71E08FE9DD
:1023D00093E00E94E80361E080E00E94A909409137
:1023E0001E0250911F02609120027091210222E092
:1023F0008FE993E00E940C0360911E0270911F020E
:10240000809120029091210220E030E040EA51E4E6
:102410000E94C80560931E0270931F0280932002E1
:102420009093210261E08AE00E94A9090E94960926
:10243000BC01990F880B990B0E94891520E030E0B0
:1024400042E853E40E946D1420E030E040E05FE396
:102450000E943E16AB01BC0122E08FE993E00E948E
:102460000C03C0901E02D0901F02E0902002F0905A
:1024700021022091100230911102409112025091DC
:102480001302C701B6010E94DA14882329F1C09211
:102490001002D0921102E0921202F09213020E94F6
:1024A0000E0A60E080E00E94A9096EED71E08FE9FC
:1024B00093E00E94E80361E080E00E94A909409156
:1024C0001E0250911F02609120027091210222E0B1
:1024D0008FE993E00E940C038AE00E944F0B892B46
:1024E00009F08ACF30921502209214028AE00E94ED
:1024F0004F0B892B81F48AE00E944F0B892BD9F373
:102500000E945605809114029091150201969093B5
:1025100015028093140220910801309109018091E5
:1025200004019091050128173907B9F420910A0197
:1025300030910B0180910201909103012817390716
:1025400061F4209106013091070180910001909182
:1025500001012817390709F4CECD0E945605809154
:1025600008019091090190930501809304018091E5
:102570000A0190910B0190930301809302018091D5
:102580000601909107019093010180930001B3CD62
:102590008EE491E090938103809380038091BF0249
:1025A0009091C0028058934071F4E0919303F091B0
:1025B0009403908180919503809589238083109264
:1025C000C0021092BF0208951092C4021092C3027A
:1025D00088EE93E0A0E0B0E08093C5029093C6023D
:1025E000A093C702B093C80228E131E03093C20241
:1025F0002093C1021092D0021092CF028093D10298
:102600009093D202A093D302B093D4022AE231E095
:102610003093CE022093CD0225EC30E03093DA02E5
:102620002093D90224EC30E03093DC022093DB02CB
:1026300020EC30E03093DE022093DD0221EC30E02C
:102640003093E0022093DF0222EC30E03093E2028C
:102650002093E10226EC30E03093E4022093E30281
:102660001092E6021092E7021092E8021092E9023C
:102670001092A2031092A10320E631E03093A00350
:1026800020939F031092A8032FE32093A30320E13C
:102690002093A90322E02093AA031092AB03109287
:1026A0008303109282038093840390938503A09305
:1026B0008603B09387038EE491E090938103809327
:1026C0008003109297031092960310929903109230
:1026D000980310929B0310929A0310929D031092FC
:1026E0009C0360919E036E7F6D7F60939E03669551
:1026F000617081E0682783E00E94780B61E083E0ED
:102700000E94A70BE1EBF0E0E491E0939003EDE988
:10271000F0E0E491F0E0EE0FFF1FE057FF4F8591EE
:102720009491909392038093910360E082E00E94E1
:10273000A70B80919E0381FD04C061E082E00E94AE
:10274000780B82E080938C03E0EBF0E0E491E0937F
:102750008D03ECE9F0E0E491F0E0EE0FFF1FEA57A3
:10276000FF4F8591949190938F0380938E031092E5
:102770006D0310926C0388EE93E0A0E0B0E08093CC
:102780006E0390936F03A0937003B09371038CE377
:1027900091E090936B0380936A0380E197E2A0E05D
:1027A000B0E08093780390937903A0937A03B09379
:1027B0007B0380E893E090937F0380937E031092E5
:1027C0007D0310927C030895052E97FB1EF4009460
:1027D0000E94FB1357FD07D00E940E1407FC03D084
:1027E0004EF40C94FB1350954095309521953F4F36
:1027F0004F4F5F4F089590958095709561957F4FED
:102800008F4F9F4F08950E943014A59F900DB49F45
:10281000900DA49F800D911D11240895A1E21A2E00
:10282000AA1BBB1BFD010DC0AA1FBB1FEE1FFF1F74
:10283000A217B307E407F50720F0A21BB30BE40BC4
:10284000F50B661F771F881F991F1A9469F760950B
:102850007095809590959B01AC01BD01CF010895C5
:10286000A29FB001B39FC001A39F700D811D1124D1
:10287000911DB29F700D811D1124911D089597FB2C
:10288000072E16F4009407D077FD09D00E94531448
:1028900007FC05D03EF4909581959F4F0895709563
:1028A00061957F4F0895AA1BBB1B51E107C0AA1F6A
:1028B000BB1FA617B70710F0A61BB70B881F991FE1
:1028C0005A95A9F780959095BC01CD010895EE0F1A
:1028D000FF1F0590F491E02D09945058BB27AA27BB
:1028E0000E9485140C94FF150E94F11538F00E9487
:1028F000F81520F039F49F3F19F426F40C94EE15E6
:102900000EF4E095E7FB0C94E815E92F0E941016F1
:1029100058F3BA17620773078407950720F079F414
:10292000A6F50C9432160EF4E0950B2EBA2FA02DBE
:102930000B01B90190010C01CA01A0011124FF276C
:10294000591B99F0593F50F4503E68F11A16F04067
:10295000A22F232F342F4427585FF3CF4695379566
:102960002795A795F0405395C9F77EF41F16BA0B2B
:10297000620B730B840BBAF09150A1F0FF0FBB1FD9
:10298000661F771F881FC2F70EC0BA0F621F731F22
:10299000841F48F4879577956795B795F7959E3F7F
:1029A00008F0B0CF9395880F08F09927EE0F979510
:1029B000879508950E94C41508F481E008950E9447
:1029C000F3140C94FF150E94F81558F00E94F115AD
:1029D00040F029F45F3F29F00C94E81551110C9454
:1029E00033160C94EE150E94101668F39923B1F378
:1029F000552391F3951B550BBB27AA276217730725
:102A0000840738F09F5F5F4F220F331F441FAA1FB8
:102A1000A9F335D00E2E3AF0E0E832D09150504074
:102A2000E695001CCAF72BD0FE2F29D0660F771F22
:102A3000881FBB1F261737074807AB07B0E809F008
:102A4000BB0B802DBF01FF2793585F4F3AF09E3F8D
:102A5000510578F00C94E8150C9433165F3FE4F3BD
:102A6000983ED4F3869577956795B795F7959F5FD0
:102A7000C9F7880F911D9695879597F90895E1E01C
:102A8000660F771F881FBB1F621773078407BA077B
:102A900020F0621B730B840BBA0BEE1F88F7E095D6
:102AA00008950E9458156894B1110C943316089536
:102AB0000E94181688F09F5798F0B92F9927B751A0
:102AC000B0F0E1F0660F771F881F991F1AF0BA95D2
:102AD000C9F714C0B13091F00E943216B1E00895E8
:102AE0000C943216672F782F8827B85F39F0B93FDA
:102AF000CCF3869577956795B395D9F73EF4909585
:102B00008095709561957F4F8F4F9F4F0895E89402
:102B100009C097FB3EF490958095709561957F4F25
:102B20008F4F9F4F9923A9F0F92F96E9BB279395D3
:102B3000F695879577956795B795F111F8CFFAF4E3
:102B4000BB0F11F460FF1BC06F5F7F4F8F4F9F4F14
:102B500016C0882311F096E911C0772321F09EE872
:102B6000872F762F05C0662371F096E8862F70E0D8
:102B700060E02AF09A95660F771F881FDAF7880FB2
:102B80009695879597F90895990F0008550FAA0B08
:102B9000E0E8FEEF16161706E807F907C0F0121670
:102BA0001306E407F50798F0621B730B840B950B73
:102BB00039F40A2661F0232B242B252B21F40895C8
:102BC0000A2609F4A140A6958FEF811D811D089565
:102BD00097F99F6780E870E060E008959FEF80ECD0
:102BE000089500240A941616170618060906089573
:102BF00000240A9412161306140605060895092ED9
:102C00000394000C11F4882352F0BB0F40F4BF2B47
:102C100011F460FF04C06F5F7F4F8F4F9F4F089587
:102C200057FD9058440F551F59F05F3F71F047957D
:102C3000880F97FB991F61F09F3F79F08795089562
:102C4000121613061406551FF2CF4695F1DF08C081
:102C5000161617061806991FF1CF8695710561059E
:102C600008940895E894BB2766277727CB0197F946
:102C700008950E94C41508F48FEF08950E9451161C
:102C80000C94FF150E94F11538F00E94F81520F001
:102C9000952311F00C94E8150C94EE1511240C9466
:102CA00033160E94101670F3959FC1F3950F50E0F4
:102CB000551F629FF001729FBB27F00DB11D639FEE
:102CC000AA27F00DB11DAA1F649F6627B00DA11D94
:102CD000661F829F2227B00DA11D621F739FB00D3A
:102CE000A11D621F839FA00D611D221F749F3327AA
:102CF000A00D611D231F849F600D211D822F762F43
:102D00006A2F11249F5750409AF0F1F088234AF01F
:102D1000EE0FFF1FBB1F661F771F881F915050408B
:102D2000A9F79E3F510580F00C94E8150C943316DA
:102D30005F3FE4F3983ED4F3869577956795B79512
:102D4000F795E7959F5FC1F7FE2B880F911D96952C
:102D5000879597F908950E94C415880B990B0895DB
:102D600081E090E0F8940C94B51610E0C2E6D0E053
:102D700004C0FE010E9467142196C336D107C9F72B
:042D8000F894FFCFF5
:102D8400640064000100640001006400000040006D
:102D9400140054000000000078074B07A2021F072C
:102DA40043072F0720070000000020018D00B70013
:102DB4006D01E800C600DA0000000000D4018D00B7
:102DC400A2029901A801BE01EA0100000000180254
:102DD4008D00A2021F0768028002000200000000AA
:102DE40050058D00A202A1025374617274696E676A
:102DF4002E2E2E00496E697469616C20506F7369C0
:102E040074696F6E3A20000D0A00484F4D494E47D1
:102E140020444F574E0053484F525420505245536C
:102E240053004C4F4E47205052455353003C0043EF
:102E340068616E6765206965526174696F004368F3
:102E4400616E6765207265737052617465004368D2
:102E5400616E676520746964616C566F6C004D61C6
:102E6400782070726573737572653A006E616E00D6
:102E7400696E66006F766600492F453A00526174A8
:0A2E8400653A002500566F6C3A0015
:00000001FF
